{
  "_format": "hh-sol-artifact-1",
  "contractName": "MyNFT",
  "sourceName": "contracts/MyNFT.sol",
  "abi": [
    {
      "inputs": [],
      "stateMutability": "nonpayable",
      "type": "constructor"
    },
    {
      "anonymous": false,
      "inputs": [
        {
          "indexed": true,
          "internalType": "address",
          "name": "owner",
          "type": "address"
        },
        {
          "indexed": true,
          "internalType": "address",
          "name": "approved",
          "type": "address"
        },
        {
          "indexed": true,
          "internalType": "uint256",
          "name": "tokenId",
          "type": "uint256"
        }
      ],
      "name": "Approval",
      "type": "event"
    },
    {
      "anonymous": false,
      "inputs": [
        {
          "indexed": true,
          "internalType": "address",
          "name": "owner",
          "type": "address"
        },
        {
          "indexed": true,
          "internalType": "address",
          "name": "operator",
          "type": "address"
        },
        {
          "indexed": false,
          "internalType": "bool",
          "name": "approved",
          "type": "bool"
        }
      ],
      "name": "ApprovalForAll",
      "type": "event"
    },
    {
      "anonymous": false,
      "inputs": [
        {
          "indexed": false,
          "internalType": "uint256",
          "name": "_fromTokenId",
          "type": "uint256"
        },
        {
          "indexed": false,
          "internalType": "uint256",
          "name": "_toTokenId",
          "type": "uint256"
        }
      ],
      "name": "BatchMetadataUpdate",
      "type": "event"
    },
    {
      "anonymous": false,
      "inputs": [
        {
          "indexed": false,
          "internalType": "uint256",
          "name": "_tokenId",
          "type": "uint256"
        }
      ],
      "name": "MetadataUpdate",
      "type": "event"
    },
    {
      "anonymous": false,
      "inputs": [
        {
          "indexed": true,
          "internalType": "address",
          "name": "previousOwner",
          "type": "address"
        },
        {
          "indexed": true,
          "internalType": "address",
          "name": "newOwner",
          "type": "address"
        }
      ],
      "name": "OwnershipTransferred",
      "type": "event"
    },
    {
      "anonymous": false,
      "inputs": [
        {
          "indexed": true,
          "internalType": "address",
          "name": "from",
          "type": "address"
        },
        {
          "indexed": true,
          "internalType": "address",
          "name": "to",
          "type": "address"
        },
        {
          "indexed": true,
          "internalType": "uint256",
          "name": "tokenId",
          "type": "uint256"
        }
      ],
      "name": "Transfer",
      "type": "event"
    },
    {
      "inputs": [],
      "name": "LIMIT_PER_ADDRESS",
      "outputs": [
        {
          "internalType": "uint256",
          "name": "",
          "type": "uint256"
        }
      ],
      "stateMutability": "view",
      "type": "function"
    },
    {
      "inputs": [],
      "name": "MAX_SUPPLY",
      "outputs": [
        {
          "internalType": "uint256",
          "name": "",
          "type": "uint256"
        }
      ],
      "stateMutability": "view",
      "type": "function"
    },
    {
      "inputs": [],
      "name": "PRICE_PER_TOKEN",
      "outputs": [
        {
          "internalType": "uint256",
          "name": "",
          "type": "uint256"
        }
      ],
      "stateMutability": "view",
      "type": "function"
    },
    {
      "inputs": [
        {
          "internalType": "address",
          "name": "to",
          "type": "address"
        },
        {
          "internalType": "uint256",
          "name": "tokenId",
          "type": "uint256"
        }
      ],
      "name": "approve",
      "outputs": [],
      "stateMutability": "nonpayable",
      "type": "function"
    },
    {
      "inputs": [
        {
          "internalType": "address",
          "name": "owner",
          "type": "address"
        }
      ],
      "name": "balanceOf",
      "outputs": [
        {
          "internalType": "uint256",
          "name": "",
          "type": "uint256"
        }
      ],
      "stateMutability": "view",
      "type": "function"
    },
    {
      "inputs": [
        {
          "internalType": "uint256",
          "name": "tokenId",
          "type": "uint256"
        }
      ],
      "name": "getApproved",
      "outputs": [
        {
          "internalType": "address",
          "name": "",
          "type": "address"
        }
      ],
      "stateMutability": "view",
      "type": "function"
    },
    {
      "inputs": [
        {
          "internalType": "address",
          "name": "owner",
          "type": "address"
        },
        {
          "internalType": "address",
          "name": "operator",
          "type": "address"
        }
      ],
      "name": "isApprovedForAll",
      "outputs": [
        {
          "internalType": "bool",
          "name": "",
          "type": "bool"
        }
      ],
      "stateMutability": "view",
      "type": "function"
    },
    {
      "inputs": [
        {
          "internalType": "string",
          "name": "tokenURI",
          "type": "string"
        }
      ],
      "name": "mintNFT",
      "outputs": [
        {
          "internalType": "uint256",
          "name": "",
          "type": "uint256"
        }
      ],
      "stateMutability": "payable",
      "type": "function"
    },
    {
      "inputs": [],
      "name": "name",
      "outputs": [
        {
          "internalType": "string",
          "name": "",
          "type": "string"
        }
      ],
      "stateMutability": "view",
      "type": "function"
    },
    {
      "inputs": [],
      "name": "owner",
      "outputs": [
        {
          "internalType": "address",
          "name": "",
          "type": "address"
        }
      ],
      "stateMutability": "view",
      "type": "function"
    },
    {
      "inputs": [
        {
          "internalType": "uint256",
          "name": "tokenId",
          "type": "uint256"
        }
      ],
      "name": "ownerOf",
      "outputs": [
        {
          "internalType": "address",
          "name": "",
          "type": "address"
        }
      ],
      "stateMutability": "view",
      "type": "function"
    },
    {
      "inputs": [],
      "name": "renounceOwnership",
      "outputs": [],
      "stateMutability": "nonpayable",
      "type": "function"
    },
    {
      "inputs": [
        {
          "internalType": "address",
          "name": "from",
          "type": "address"
        },
        {
          "internalType": "address",
          "name": "to",
          "type": "address"
        },
        {
          "internalType": "uint256",
          "name": "tokenId",
          "type": "uint256"
        }
      ],
      "name": "safeTransferFrom",
      "outputs": [],
      "stateMutability": "nonpayable",
      "type": "function"
    },
    {
      "inputs": [
        {
          "internalType": "address",
          "name": "from",
          "type": "address"
        },
        {
          "internalType": "address",
          "name": "to",
          "type": "address"
        },
        {
          "internalType": "uint256",
          "name": "tokenId",
          "type": "uint256"
        },
        {
          "internalType": "bytes",
          "name": "data",
          "type": "bytes"
        }
      ],
      "name": "safeTransferFrom",
      "outputs": [],
      "stateMutability": "nonpayable",
      "type": "function"
    },
    {
      "inputs": [
        {
          "internalType": "address",
          "name": "operator",
          "type": "address"
        },
        {
          "internalType": "bool",
          "name": "approved",
          "type": "bool"
        }
      ],
      "name": "setApprovalForAll",
      "outputs": [],
      "stateMutability": "nonpayable",
      "type": "function"
    },
    {
      "inputs": [
        {
          "internalType": "uint256",
          "name": "limit",
          "type": "uint256"
        }
      ],
      "name": "setLimit",
      "outputs": [],
      "stateMutability": "nonpayable",
      "type": "function"
    },
    {
      "inputs": [
        {
          "internalType": "uint256",
          "name": "max_supply",
          "type": "uint256"
        }
      ],
      "name": "setMaxSupply",
      "outputs": [],
      "stateMutability": "nonpayable",
      "type": "function"
    },
    {
      "inputs": [
        {
          "internalType": "uint256",
          "name": "price",
          "type": "uint256"
        }
      ],
      "name": "setPrice",
      "outputs": [],
      "stateMutability": "nonpayable",
      "type": "function"
    },
    {
      "inputs": [
        {
          "internalType": "bytes4",
          "name": "interfaceId",
          "type": "bytes4"
        }
      ],
      "name": "supportsInterface",
      "outputs": [
        {
          "internalType": "bool",
          "name": "",
          "type": "bool"
        }
      ],
      "stateMutability": "view",
      "type": "function"
    },
    {
      "inputs": [],
      "name": "symbol",
      "outputs": [
        {
          "internalType": "string",
          "name": "",
          "type": "string"
        }
      ],
      "stateMutability": "view",
      "type": "function"
    },
    {
      "inputs": [
        {
          "internalType": "uint256",
          "name": "tokenId",
          "type": "uint256"
        }
      ],
      "name": "tokenURI",
      "outputs": [
        {
          "internalType": "string",
          "name": "",
          "type": "string"
        }
      ],
      "stateMutability": "view",
      "type": "function"
    },
    {
      "inputs": [
        {
          "internalType": "address",
          "name": "from",
          "type": "address"
        },
        {
          "internalType": "address",
          "name": "to",
          "type": "address"
        },
        {
          "internalType": "uint256",
          "name": "tokenId",
          "type": "uint256"
        }
      ],
      "name": "transferFrom",
      "outputs": [],
      "stateMutability": "nonpayable",
      "type": "function"
    },
    {
      "inputs": [
        {
          "internalType": "address",
          "name": "newOwner",
          "type": "address"
        }
      ],
      "name": "transferOwnership",
      "outputs": [],
      "stateMutability": "nonpayable",
      "type": "function"
    },
    {
      "inputs": [],
      "name": "withdrawMoney",
      "outputs": [],
      "stateMutability": "nonpayable",
      "type": "function"
    }
  ],
  "bytecode": "0x6080604052662386f26fc10000600c556002600d556005600e553480156200002657600080fd5b506040518060400160405280600581526020017f4d794e46540000000000000000000000000000000000000000000000000000008152506040518060400160405280600381526020017f4e465400000000000000000000000000000000000000000000000000000000008152508160009080519060200190620000ab929190620001bb565b508060019080519060200190620000c4929190620001bb565b505050620000e7620000db620000ed60201b60201c565b620000f560201b60201c565b620002d0565b600033905090565b6000600760009054906101000a900473ffffffffffffffffffffffffffffffffffffffff16905081600760006101000a81548173ffffffffffffffffffffffffffffffffffffffff021916908373ffffffffffffffffffffffffffffffffffffffff1602179055508173ffffffffffffffffffffffffffffffffffffffff168173ffffffffffffffffffffffffffffffffffffffff167f8be0079c531659141344cd1fd0a4f28419497f9722a3daafe3b4186f6b6457e060405160405180910390a35050565b828054620001c9906200026b565b90600052602060002090601f016020900481019282620001ed576000855562000239565b82601f106200020857805160ff191683800117855562000239565b8280016001018555821562000239579182015b82811115620002385782518255916020019190600101906200021b565b5b5090506200024891906200024c565b5090565b5b80821115620002675760008160009055506001016200024d565b5090565b600060028204905060018216806200028457607f821691505b602082108114156200029b576200029a620002a1565b5b50919050565b7f4e487b7100000000000000000000000000000000000000000000000000000000600052602260045260246000fd5b6134ff80620002e06000396000f3fe60806040526004361061014b5760003560e01c8063715018a6116100b6578063ac4460021161006f578063ac4460021461047c578063b88d4fde14610493578063c87b56dd146104bc578063e985e9c5146104f9578063f2fde38b14610536578063fb37e8831461055f5761014b565b8063715018a614610392578063833b9499146103a95780638da5cb5b146103d457806391b7f5ed146103ff57806395d89b4114610428578063a22cb465146104535761014b565b806332cb6b0c1161010857806332cb6b0c14610270578063417bac1a1461029b57806342842e0e146102c65780636352211e146102ef5780636f8b44b01461032c57806370a08231146103555761014b565b806301ffc9a71461015057806306fdde031461018d578063081812fc146101b8578063095ea7b3146101f557806323b872dd1461021e57806327ea6f2b14610247575b600080fd5b34801561015c57600080fd5b50610177600480360381019061017291906125de565b61058f565b6040516101849190612a82565b60405180910390f35b34801561019957600080fd5b506101a26105f0565b6040516101af9190612a9d565b60405180910390f35b3480156101c457600080fd5b506101df60048036038101906101da9190612671565b610682565b6040516101ec9190612a1b565b60405180910390f35b34801561020157600080fd5b5061021c600480360381019061021791906125a2565b6106c8565b005b34801561022a57600080fd5b506102456004803603810190610240919061249c565b6107e0565b005b34801561025357600080fd5b5061026e60048036038101906102699190612671565b610840565b005b34801561027c57600080fd5b50610285610852565b6040516102929190612cff565b60405180910390f35b3480156102a757600080fd5b506102b0610858565b6040516102bd9190612cff565b60405180910390f35b3480156102d257600080fd5b506102ed60048036038101906102e8919061249c565b61085e565b005b3480156102fb57600080fd5b5061031660048036038101906103119190612671565b61087e565b6040516103239190612a1b565b60405180910390f35b34801561033857600080fd5b50610353600480360381019061034e9190612671565b610905565b005b34801561036157600080fd5b5061037c60048036038101906103779190612437565b610917565b6040516103899190612cff565b60405180910390f35b34801561039e57600080fd5b506103a76109cf565b005b3480156103b557600080fd5b506103be6109e3565b6040516103cb9190612cff565b60405180910390f35b3480156103e057600080fd5b506103e96109e9565b6040516103f69190612a1b565b60405180910390f35b34801561040b57600080fd5b5061042660048036038101906104219190612671565b610a13565b005b34801561043457600080fd5b5061043d610a25565b60405161044a9190612a9d565b60405180910390f35b34801561045f57600080fd5b5061047a60048036038101906104759190612566565b610ab7565b005b34801561048857600080fd5b50610491610acd565b005b34801561049f57600080fd5b506104ba60048036038101906104b591906124eb565b610b24565b005b3480156104c857600080fd5b506104e360048036038101906104de9190612671565b610b86565b6040516104f09190612a9d565b60405180910390f35b34801561050557600080fd5b50610520600480360381019061051b9190612460565b610c99565b60405161052d9190612a82565b60405180910390f35b34801561054257600080fd5b5061055d60048036038101906105589190612437565b610d2d565b005b61057960048036038101906105749190612630565b610db1565b6040516105869190612cff565b60405180910390f35b6000634906490660e01b7bffffffffffffffffffffffffffffffffffffffffffffffffffffffff1916827bffffffffffffffffffffffffffffffffffffffffffffffffffffffff191614806105e957506105e88261105c565b5b9050919050565b6060600080546105ff90612f34565b80601f016020809104026020016040519081016040528092919081815260200182805461062b90612f34565b80156106785780601f1061064d57610100808354040283529160200191610678565b820191906000526020600020905b81548152906001019060200180831161065b57829003601f168201915b5050505050905090565b600061068d8261113e565b6004600083815260200190815260200160002060009054906101000a900473ffffffffffffffffffffffffffffffffffffffff169050919050565b60006106d38261087e565b90508073ffffffffffffffffffffffffffffffffffffffff168373ffffffffffffffffffffffffffffffffffffffff161415610744576040517f08c379a000000000000000000000000000000000000000000000000000000000815260040161073b90612c9f565b60405180910390fd5b8073ffffffffffffffffffffffffffffffffffffffff16610763611189565b73ffffffffffffffffffffffffffffffffffffffff16148061079257506107918161078c611189565b610c99565b5b6107d1576040517f08c379a00000000000000000000000000000000000000000000000000000000081526004016107c890612cbf565b60405180910390fd5b6107db8383611191565b505050565b6107f16107eb611189565b8261124a565b610830576040517f08c379a000000000000000000000000000000000000000000000000000000000815260040161082790612abf565b60405180910390fd5b61083b8383836112df565b505050565b6108486115d9565b80600d8190555050565b600e5481565b600d5481565b61087983838360405180602001604052806000815250610b24565b505050565b60008061088a83611657565b9050600073ffffffffffffffffffffffffffffffffffffffff168173ffffffffffffffffffffffffffffffffffffffff1614156108fc576040517f08c379a00000000000000000000000000000000000000000000000000000000081526004016108f390612c7f565b60405180910390fd5b80915050919050565b61090d6115d9565b80600e8190555050565b60008073ffffffffffffffffffffffffffffffffffffffff168273ffffffffffffffffffffffffffffffffffffffff161415610988576040517f08c379a000000000000000000000000000000000000000000000000000000000815260040161097f90612bbf565b60405180910390fd5b600360008373ffffffffffffffffffffffffffffffffffffffff1673ffffffffffffffffffffffffffffffffffffffff168152602001908152602001600020549050919050565b6109d76115d9565b6109e16000611694565b565b600c5481565b6000600760009054906101000a900473ffffffffffffffffffffffffffffffffffffffff16905090565b610a1b6115d9565b80600c8190555050565b606060018054610a3490612f34565b80601f0160208091040260200160405190810160405280929190818152602001828054610a6090612f34565b8015610aad5780601f10610a8257610100808354040283529160200191610aad565b820191906000526020600020905b815481529060010190602001808311610a9057829003601f168201915b5050505050905090565b610ac9610ac2611189565b838361175a565b5050565b610ad56115d9565b60003390508073ffffffffffffffffffffffffffffffffffffffff166108fc479081150290604051600060405180830381858888f19350505050158015610b20573d6000803e3d6000fd5b5050565b610b35610b2f611189565b8361124a565b610b74576040517f08c379a0000000000000000000000000000000000000000000000000000000008152600401610b6b90612abf565b60405180910390fd5b610b80848484846118c7565b50505050565b6060610b918261113e565b6000600660008481526020019081526020016000208054610bb190612f34565b80601f0160208091040260200160405190810160405280929190818152602001828054610bdd90612f34565b8015610c2a5780601f10610bff57610100808354040283529160200191610c2a565b820191906000526020600020905b815481529060010190602001808311610c0d57829003601f168201915b505050505090506000610c3b611923565b9050600081511415610c51578192505050610c94565b600082511115610c86578082604051602001610c6e9291906129f7565b60405160208183030381529060405292505050610c94565b610c8f8461193a565b925050505b919050565b6000600560008473ffffffffffffffffffffffffffffffffffffffff1673ffffffffffffffffffffffffffffffffffffffff16815260200190815260200160002060008373ffffffffffffffffffffffffffffffffffffffff1673ffffffffffffffffffffffffffffffffffffffff16815260200190815260200160002060009054906101000a900460ff16905092915050565b610d356115d9565b600073ffffffffffffffffffffffffffffffffffffffff168173ffffffffffffffffffffffffffffffffffffffff161415610da5576040517f08c379a0000000000000000000000000000000000000000000000000000000008152600401610d9c90612aff565b60405180910390fd5b610dae81611694565b50565b600034600c541115610df8576040517f08c379a0000000000000000000000000000000000000000000000000000000008152600401610def90612bff565b60405180910390fd5b600d54600a60003373ffffffffffffffffffffffffffffffffffffffff1673ffffffffffffffffffffffffffffffffffffffff16815260200190815260200160002060009054906101000a900460ff1660ff1610610e8b576040517f08c379a0000000000000000000000000000000000000000000000000000000008152600401610e8290612cdf565b60405180910390fd5b600e546001610e9a60096119a2565b610ea49190612de4565b1115610ee5576040517f08c379a0000000000000000000000000000000000000000000000000000000008152600401610edc90612c5f565b60405180910390fd5b6000600b83604051610ef791906129e0565b908152602001604051809103902060009054906101000a900460ff1660ff1614610f56576040517f08c379a0000000000000000000000000000000000000000000000000000000008152600401610f4d90612b9f565b60405180910390fd5b6001600b83604051610f6891906129e0565b908152602001604051809103902060008282829054906101000a900460ff16610f919190612e3a565b92506101000a81548160ff021916908360ff1602179055506001600a60003373ffffffffffffffffffffffffffffffffffffffff1673ffffffffffffffffffffffffffffffffffffffff16815260200190815260200160002060008282829054906101000a900460ff166110059190612e3a565b92506101000a81548160ff021916908360ff16021790555061102760086119b0565b61103160096119b0565b600061103d60086119a2565b905061104933826119c6565b6110538184611be4565b80915050919050565b60007f80ac58cd000000000000000000000000000000000000000000000000000000007bffffffffffffffffffffffffffffffffffffffffffffffffffffffff1916827bffffffffffffffffffffffffffffffffffffffffffffffffffffffff1916148061112757507f5b5e139f000000000000000000000000000000000000000000000000000000007bffffffffffffffffffffffffffffffffffffffffffffffffffffffff1916827bffffffffffffffffffffffffffffffffffffffffffffffffffffffff1916145b80611137575061113682611c8f565b5b9050919050565b61114781611cf9565b611186576040517f08c379a000000000000000000000000000000000000000000000000000000000815260040161117d90612c7f565b60405180910390fd5b50565b600033905090565b816004600083815260200190815260200160002060006101000a81548173ffffffffffffffffffffffffffffffffffffffff021916908373ffffffffffffffffffffffffffffffffffffffff160217905550808273ffffffffffffffffffffffffffffffffffffffff166112048361087e565b73ffffffffffffffffffffffffffffffffffffffff167f8c5be1e5ebec7d5bd14f71427d1e84f3dd0314c0f7b2291e5b200ac8c7c3b92560405160405180910390a45050565b6000806112568361087e565b90508073ffffffffffffffffffffffffffffffffffffffff168473ffffffffffffffffffffffffffffffffffffffff16148061129857506112978185610c99565b5b806112d657508373ffffffffffffffffffffffffffffffffffffffff166112be84610682565b73ffffffffffffffffffffffffffffffffffffffff16145b91505092915050565b8273ffffffffffffffffffffffffffffffffffffffff166112ff8261087e565b73ffffffffffffffffffffffffffffffffffffffff1614611355576040517f08c379a000000000000000000000000000000000000000000000000000000000815260040161134c90612b1f565b60405180910390fd5b600073ffffffffffffffffffffffffffffffffffffffff168273ffffffffffffffffffffffffffffffffffffffff1614156113c5576040517f08c379a00000000000000000000000000000000000000000000000000000000081526004016113bc90612b5f565b60405180910390fd5b6113d28383836001611d3a565b8273ffffffffffffffffffffffffffffffffffffffff166113f28261087e565b73ffffffffffffffffffffffffffffffffffffffff1614611448576040517f08c379a000000000000000000000000000000000000000000000000000000000815260040161143f90612b1f565b60405180910390fd5b6004600082815260200190815260200160002060006101000a81549073ffffffffffffffffffffffffffffffffffffffff02191690556001600360008573ffffffffffffffffffffffffffffffffffffffff1673ffffffffffffffffffffffffffffffffffffffff168152602001908152602001600020600082825403925050819055506001600360008473ffffffffffffffffffffffffffffffffffffffff1673ffffffffffffffffffffffffffffffffffffffff16815260200190815260200160002060008282540192505081905550816002600083815260200190815260200160002060006101000a81548173ffffffffffffffffffffffffffffffffffffffff021916908373ffffffffffffffffffffffffffffffffffffffff160217905550808273ffffffffffffffffffffffffffffffffffffffff168473ffffffffffffffffffffffffffffffffffffffff167fddf252ad1be2c89b69c2b068fc378daa952ba7f163c4a11628f55a4df523b3ef60405160405180910390a46115d48383836001611d40565b505050565b6115e1611189565b73ffffffffffffffffffffffffffffffffffffffff166115ff6109e9565b73ffffffffffffffffffffffffffffffffffffffff1614611655576040517f08c379a000000000000000000000000000000000000000000000000000000000815260040161164c90612c3f565b60405180910390fd5b565b60006002600083815260200190815260200160002060009054906101000a900473ffffffffffffffffffffffffffffffffffffffff169050919050565b6000600760009054906101000a900473ffffffffffffffffffffffffffffffffffffffff16905081600760006101000a81548173ffffffffffffffffffffffffffffffffffffffff021916908373ffffffffffffffffffffffffffffffffffffffff1602179055508173ffffffffffffffffffffffffffffffffffffffff168173ffffffffffffffffffffffffffffffffffffffff167f8be0079c531659141344cd1fd0a4f28419497f9722a3daafe3b4186f6b6457e060405160405180910390a35050565b8173ffffffffffffffffffffffffffffffffffffffff168373ffffffffffffffffffffffffffffffffffffffff1614156117c9576040517f08c379a00000000000000000000000000000000000000000000000000000000081526004016117c090612b7f565b60405180910390fd5b80600560008573ffffffffffffffffffffffffffffffffffffffff1673ffffffffffffffffffffffffffffffffffffffff16815260200190815260200160002060008473ffffffffffffffffffffffffffffffffffffffff1673ffffffffffffffffffffffffffffffffffffffff16815260200190815260200160002060006101000a81548160ff0219169083151502179055508173ffffffffffffffffffffffffffffffffffffffff168373ffffffffffffffffffffffffffffffffffffffff167f17307eab39ab6107e8899845ad3d59bd9653f200f220920489ca2b5937696c31836040516118ba9190612a82565b60405180910390a3505050565b6118d28484846112df565b6118de84848484611d46565b61191d576040517f08c379a000000000000000000000000000000000000000000000000000000000815260040161191490612adf565b60405180910390fd5b50505050565b606060405180602001604052806000815250905090565b60606119458261113e565b600061194f611923565b9050600081511161196f576040518060200160405280600081525061199a565b8061197984611edd565b60405160200161198a9291906129f7565b6040516020818303038152906040525b915050919050565b600081600001549050919050565b6001816000016000828254019250508190555050565b600073ffffffffffffffffffffffffffffffffffffffff168273ffffffffffffffffffffffffffffffffffffffff161415611a36576040517f08c379a0000000000000000000000000000000000000000000000000000000008152600401611a2d90612c1f565b60405180910390fd5b611a3f81611cf9565b15611a7f576040517f08c379a0000000000000000000000000000000000000000000000000000000008152600401611a7690612b3f565b60405180910390fd5b611a8d600083836001611d3a565b611a9681611cf9565b15611ad6576040517f08c379a0000000000000000000000000000000000000000000000000000000008152600401611acd90612b3f565b60405180910390fd5b6001600360008473ffffffffffffffffffffffffffffffffffffffff1673ffffffffffffffffffffffffffffffffffffffff16815260200190815260200160002060008282540192505081905550816002600083815260200190815260200160002060006101000a81548173ffffffffffffffffffffffffffffffffffffffff021916908373ffffffffffffffffffffffffffffffffffffffff160217905550808273ffffffffffffffffffffffffffffffffffffffff16600073ffffffffffffffffffffffffffffffffffffffff167fddf252ad1be2c89b69c2b068fc378daa952ba7f163c4a11628f55a4df523b3ef60405160405180910390a4611be0600083836001611d40565b5050565b611bed82611cf9565b611c2c576040517f08c379a0000000000000000000000000000000000000000000000000000000008152600401611c2390612bdf565b60405180910390fd5b80600660008481526020019081526020016000209080519060200190611c5392919061225b565b507ff8e1a15aba9398e019f0b49df1a4fde98ee17ae345cb5f6b5e2c27f5033e8ce782604051611c839190612cff565b60405180910390a15050565b60007f01ffc9a7000000000000000000000000000000000000000000000000000000007bffffffffffffffffffffffffffffffffffffffffffffffffffffffff1916827bffffffffffffffffffffffffffffffffffffffffffffffffffffffff1916149050919050565b60008073ffffffffffffffffffffffffffffffffffffffff16611d1b83611657565b73ffffffffffffffffffffffffffffffffffffffff1614159050919050565b50505050565b50505050565b6000611d678473ffffffffffffffffffffffffffffffffffffffff16612001565b15611ed0578373ffffffffffffffffffffffffffffffffffffffff1663150b7a02611d90611189565b8786866040518563ffffffff1660e01b8152600401611db29493929190612a36565b602060405180830381600087803b158015611dcc57600080fd5b505af1925050508015611dfd57506040513d601f19601f82011682018060405250810190611dfa9190612607565b60015b611e80573d8060008114611e2d576040519150601f19603f3d011682016040523d82523d6000602084013e611e32565b606091505b50600081511415611e78576040517f08c379a0000000000000000000000000000000000000000000000000000000008152600401611e6f90612adf565b60405180910390fd5b805181602001fd5b63150b7a0260e01b7bffffffffffffffffffffffffffffffffffffffffffffffffffffffff1916817bffffffffffffffffffffffffffffffffffffffffffffffffffffffff191614915050611ed5565b600190505b949350505050565b606060006001611eec84612024565b01905060008167ffffffffffffffff811115611f31577f4e487b7100000000000000000000000000000000000000000000000000000000600052604160045260246000fd5b6040519080825280601f01601f191660200182016040528015611f635781602001600182028036833780820191505090505b509050600082602001820190505b600115611ff6578080600190039150507f3031323334353637383961626364656600000000000000000000000000000000600a86061a8153600a8581611fe0577f4e487b7100000000000000000000000000000000000000000000000000000000600052601260045260246000fd5b0494506000851415611ff157611ff6565b611f71565b819350505050919050565b6000808273ffffffffffffffffffffffffffffffffffffffff163b119050919050565b600080600090507a184f03e93ff9f4daa797ed6e38ed64bf6a1f01000000000000000083106120a8577a184f03e93ff9f4daa797ed6e38ed64bf6a1f010000000000000000838161209e577f4e487b7100000000000000000000000000000000000000000000000000000000600052601260045260246000fd5b0492506040810190505b6d04ee2d6d415b85acef8100000000831061210b576d04ee2d6d415b85acef81000000008381612101577f4e487b7100000000000000000000000000000000000000000000000000000000600052601260045260246000fd5b0492506020810190505b662386f26fc10000831061216057662386f26fc100008381612156577f4e487b7100000000000000000000000000000000000000000000000000000000600052601260045260246000fd5b0492506010810190505b6305f5e10083106121af576305f5e10083816121a5577f4e487b7100000000000000000000000000000000000000000000000000000000600052601260045260246000fd5b0492506008810190505b61271083106121fa5761271083816121f0577f4e487b7100000000000000000000000000000000000000000000000000000000600052601260045260246000fd5b0492506004810190505b606483106122435760648381612239577f4e487b7100000000000000000000000000000000000000000000000000000000600052601260045260246000fd5b0492506002810190505b600a8310612252576001810190505b80915050919050565b82805461226790612f34565b90600052602060002090601f01602090048101928261228957600085556122d0565b82601f106122a257805160ff19168380011785556122d0565b828001600101855582156122d0579182015b828111156122cf5782518255916020019190600101906122b4565b5b5090506122dd91906122e1565b5090565b5b808211156122fa5760008160009055506001016122e2565b5090565b600061231161230c84612d3f565b612d1a565b90508281526020810184848401111561232957600080fd5b612334848285612ef2565b509392505050565b600061234f61234a84612d70565b612d1a565b90508281526020810184848401111561236757600080fd5b612372848285612ef2565b509392505050565b6000813590506123898161346d565b92915050565b60008135905061239e81613484565b92915050565b6000813590506123b38161349b565b92915050565b6000815190506123c88161349b565b92915050565b600082601f8301126123df57600080fd5b81356123ef8482602086016122fe565b91505092915050565b600082601f83011261240957600080fd5b813561241984826020860161233c565b91505092915050565b600081359050612431816134b2565b92915050565b60006020828403121561244957600080fd5b60006124578482850161237a565b91505092915050565b6000806040838503121561247357600080fd5b60006124818582860161237a565b92505060206124928582860161237a565b9150509250929050565b6000806000606084860312156124b157600080fd5b60006124bf8682870161237a565b93505060206124d08682870161237a565b92505060406124e186828701612422565b9150509250925092565b6000806000806080858703121561250157600080fd5b600061250f8782880161237a565b94505060206125208782880161237a565b935050604061253187828801612422565b925050606085013567ffffffffffffffff81111561254e57600080fd5b61255a878288016123ce565b91505092959194509250565b6000806040838503121561257957600080fd5b60006125878582860161237a565b92505060206125988582860161238f565b9150509250929050565b600080604083850312156125b557600080fd5b60006125c38582860161237a565b92505060206125d485828601612422565b9150509250929050565b6000602082840312156125f057600080fd5b60006125fe848285016123a4565b91505092915050565b60006020828403121561261957600080fd5b6000612627848285016123b9565b91505092915050565b60006020828403121561264257600080fd5b600082013567ffffffffffffffff81111561265c57600080fd5b612668848285016123f8565b91505092915050565b60006020828403121561268357600080fd5b600061269184828501612422565b91505092915050565b6126a381612e71565b82525050565b6126b281612e83565b82525050565b60006126c382612da1565b6126cd8185612db7565b93506126dd818560208601612f01565b6126e681613024565b840191505092915050565b60006126fc82612dac565b6127068185612dc8565b9350612716818560208601612f01565b61271f81613024565b840191505092915050565b600061273582612dac565b61273f8185612dd9565b935061274f818560208601612f01565b80840191505092915050565b6000612768602d83612dc8565b915061277382613035565b604082019050919050565b600061278b603283612dc8565b915061279682613084565b604082019050919050565b60006127ae602683612dc8565b91506127b9826130d3565b604082019050919050565b60006127d1602583612dc8565b91506127dc82613122565b604082019050919050565b60006127f4601c83612dc8565b91506127ff82613171565b602082019050919050565b6000612817602483612dc8565b91506128228261319a565b604082019050919050565b600061283a601983612dc8565b9150612845826131e9565b602082019050919050565b600061285d602083612dc8565b915061286882613212565b602082019050919050565b6000612880602983612dc8565b915061288b8261323b565b604082019050919050565b60006128a3602e83612dc8565b91506128ae8261328a565b604082019050919050565b60006128c6601783612dc8565b91506128d1826132d9565b602082019050919050565b60006128e9602083612dc8565b91506128f482613302565b602082019050919050565b600061290c602083612dc8565b91506129178261332b565b602082019050919050565b600061292f601c83612dc8565b915061293a82613354565b602082019050919050565b6000612952601883612dc8565b915061295d8261337d565b602082019050919050565b6000612975602183612dc8565b9150612980826133a6565b604082019050919050565b6000612998603d83612dc8565b91506129a3826133f5565b604082019050919050565b60006129bb601f83612dc8565b91506129c682613444565b602082019050919050565b6129da81612edb565b82525050565b60006129ec828461272a565b915081905092915050565b6000612a03828561272a565b9150612a0f828461272a565b91508190509392505050565b6000602082019050612a30600083018461269a565b92915050565b6000608082019050612a4b600083018761269a565b612a58602083018661269a565b612a6560408301856129d1565b8181036060830152612a7781846126b8565b905095945050505050565b6000602082019050612a9760008301846126a9565b92915050565b60006020820190508181036000830152612ab781846126f1565b905092915050565b60006020820190508181036000830152612ad88161275b565b9050919050565b60006020820190508181036000830152612af88161277e565b9050919050565b60006020820190508181036000830152612b18816127a1565b9050919050565b60006020820190508181036000830152612b38816127c4565b9050919050565b60006020820190508181036000830152612b58816127e7565b9050919050565b60006020820190508181036000830152612b788161280a565b9050919050565b60006020820190508181036000830152612b988161282d565b9050919050565b60006020820190508181036000830152612bb881612850565b9050919050565b60006020820190508181036000830152612bd881612873565b9050919050565b60006020820190508181036000830152612bf881612896565b9050919050565b60006020820190508181036000830152612c18816128b9565b9050919050565b60006020820190508181036000830152612c38816128dc565b9050919050565b60006020820190508181036000830152612c58816128ff565b9050919050565b60006020820190508181036000830152612c7881612922565b9050919050565b60006020820190508181036000830152612c9881612945565b9050919050565b60006020820190508181036000830152612cb881612968565b9050919050565b60006020820190508181036000830152612cd88161298b565b9050919050565b60006020820190508181036000830152612cf8816129ae565b9050919050565b6000602082019050612d1460008301846129d1565b92915050565b6000612d24612d35565b9050612d308282612f66565b919050565b6000604051905090565b600067ffffffffffffffff821115612d5a57612d59612ff5565b5b612d6382613024565b9050602081019050919050565b600067ffffffffffffffff821115612d8b57612d8a612ff5565b5b612d9482613024565b9050602081019050919050565b600081519050919050565b600081519050919050565b600082825260208201905092915050565b600082825260208201905092915050565b600081905092915050565b6000612def82612edb565b9150612dfa83612edb565b9250827fffffffffffffffffffffffffffffffffffffffffffffffffffffffffffffffff03821115612e2f57612e2e612f97565b5b828201905092915050565b6000612e4582612ee5565b9150612e5083612ee5565b92508260ff03821115612e6657612e65612f97565b5b828201905092915050565b6000612e7c82612ebb565b9050919050565b60008115159050919050565b60007fffffffff0000000000000000000000000000000000000000000000000000000082169050919050565b600073ffffffffffffffffffffffffffffffffffffffff82169050919050565b6000819050919050565b600060ff82169050919050565b82818337600083830152505050565b60005b83811015612f1f578082015181840152602081019050612f04565b83811115612f2e576000848401525b50505050565b60006002820490506001821680612f4c57607f821691505b60208210811415612f6057612f5f612fc6565b5b50919050565b612f6f82613024565b810181811067ffffffffffffffff82111715612f8e57612f8d612ff5565b5b80604052505050565b7f4e487b7100000000000000000000000000000000000000000000000000000000600052601160045260246000fd5b7f4e487b7100000000000000000000000000000000000000000000000000000000600052602260045260246000fd5b7f4e487b7100000000000000000000000000000000000000000000000000000000600052604160045260246000fd5b6000601f19601f8301169050919050565b7f4552433732313a2063616c6c6572206973206e6f7420746f6b656e206f776e6560008201527f72206f7220617070726f76656400000000000000000000000000000000000000602082015250565b7f4552433732313a207472616e7366657220746f206e6f6e20455243373231526560008201527f63656976657220696d706c656d656e7465720000000000000000000000000000602082015250565b7f4f776e61626c653a206e6577206f776e657220697320746865207a65726f206160008201527f6464726573730000000000000000000000000000000000000000000000000000602082015250565b7f4552433732313a207472616e736665722066726f6d20696e636f72726563742060008201527f6f776e6572000000000000000000000000000000000000000000000000000000602082015250565b7f4552433732313a20746f6b656e20616c7265616479206d696e74656400000000600082015250565b7f4552433732313a207472616e7366657220746f20746865207a65726f2061646460008201527f7265737300000000000000000000000000000000000000000000000000000000602082015250565b7f4552433732313a20617070726f766520746f2063616c6c657200000000000000600082015250565b7f54686973204e46542068617320616c7265616479206265656e206d696e746564600082015250565b7f4552433732313a2061646472657373207a65726f206973206e6f74206120766160008201527f6c6964206f776e65720000000000000000000000000000000000000000000000602082015250565b7f45524337323155524953746f726167653a2055524920736574206f66206e6f6e60008201527f6578697374656e7420746f6b656e000000000000000000000000000000000000602082015250565b7f4574686572207061696420697320696e636f7272656374000000000000000000600082015250565b7f4552433732313a206d696e7420746f20746865207a65726f2061646472657373600082015250565b7f4f776e61626c653a2063616c6c6572206973206e6f7420746865206f776e6572600082015250565b7f596f752068617665206578636565646564204d617820537570706c7900000000600082015250565b7f4552433732313a20696e76616c696420746f6b656e2049440000000000000000600082015250565b7f4552433732313a20617070726f76616c20746f2063757272656e74206f776e6560008201527f7200000000000000000000000000000000000000000000000000000000000000602082015250565b7f4552433732313a20617070726f76652063616c6c6572206973206e6f7420746f60008201527f6b656e206f776e6572206f7220617070726f76656420666f7220616c6c000000602082015250565b7f596f752068617665206578636565646564206d696e74696e67206c696d697400600082015250565b61347681612e71565b811461348157600080fd5b50565b61348d81612e83565b811461349857600080fd5b50565b6134a481612e8f565b81146134af57600080fd5b50565b6134bb81612edb565b81146134c657600080fd5b5056fea2646970667358221220f6cfc4b031554e636d10e760caaec1d8890bf2815c6c63aeee79594f232df41064736f6c63430008040033",
  "linkReferences": {},
  "deployedLinkReferences": {}
}